:100000000C945C000C9479000C9479000C947900A9
:100010000C9479000C9479000C9479000C9479007C
:100020000C9479000C9479000C9479000C9479006C
:100030000C9479000C9479000C9479000C9479005C
:100040000C9422010C9479000C9479000C947900A2
:100050000C9479000C9479000C9479000C9479003C
:100060000C9479000C947900000000080002010053
:100070000003040700000000000000000102040863
:100080001020408001020408102001020408102002
:10009000040404040404040402020202020203032E
:1000A0000303030300000000250028002B000000CC
:1000B0000000240027002A0011241FBECFEFD8E043
:1000C000DEBFCDBF11E0A0E0B1E0EAE3F5E002C0A1
:1000D00005900D92A231B107D9F721E0A2E1B1E07C
:1000E00001C01D92AD31B207E1F70E948B020C9462
:1000F0009B020C94000061E0809110010E941B02A1
:1001000061E080910E010E941B0261E080910C0170
:100110000E941B0261E080910A010E941B0261E0C3
:10012000809108010E941B0261E0809106010E94FB
:100130001B0261E0809104010E941B0261E080913A
:1001400002010E941B0261E0809100010C941B02DD
:1001500081E090E09093130180931201809112014D
:10016000909113018A3091050CF06BC0019729F42E
:1001700061E0809110010E945402809112019091DF
:100180001301029729F461E080910E010E9454024C
:100190008091120190911301039729F461E08091FD
:1001A0000C010E9454028091120190911301049756
:1001B00029F461E080910A010E94540280911201A9
:1001C00090911301059729F461E0809108010E9444
:1001D00054028091120190911301069729F461E075
:1001E000809106010E9454028091120190911301A6
:1001F000079729F461E0809104010E9454028091E4
:10020000120190911301089729F461E08091020195
:100210000E9454028091120190911301099729F4D0
:1002200061E0809100010E94540268EE73E080E07A
:1002300090E00E948F01809112019091130101962C
:1002400089CF08951F920F920FB60F9211242F930A
:100250003F938F939F93AF93BF938091150190919C
:100260001601A0911701B09118013091140123E0FB
:10027000230F2D3720F40196A11DB11D05C026E8DE
:10028000230F0296A11DB11D209314018093150127
:1002900090931601A0931701B09318018091190152
:1002A00090911A01A0911B01B0911C010196A11D12
:1002B000B11D8093190190931A01A0931B01B09373
:1002C0001C01BF91AF919F918F913F912F910F9002
:1002D0000FBE0F901F9018953FB7F89480911901A9
:1002E00090911A01A0911B01B0911C0126B5A89B09
:1002F00005C02F3F19F00196A11DB11D3FBF662714
:10030000782F892F9A2F620F711D811D911D42E058
:10031000660F771F881F991F4A95D1F70895CF92CE
:10032000DF92EF92FF92CF93DF936B017C010E94EB
:100330006C01EB01C114D104E104F10489F00E94C5
:100340009A020E946C016C1B7D0B683E734090F317
:1003500081E0C81AD108E108F108C851DC4FEACFA2
:10036000DF91CF91FF90EF90DF90CF900895789438
:1003700084B5826084BD84B5816084BD85B58260AA
:1003800085BD85B5816085BDEEE6F0E08081816048
:100390008083E1E8F0E01082808182608083808148
:1003A00081608083E0E8F0E0808181608083E1EB20
:1003B000F0E0808184608083E0EBF0E08081816008
:1003C0008083EAE7F0E080818460808380818260BE
:1003D00080838081816080838081806880831092A7
:1003E000C1000895833081F028F4813099F0823083
:1003F000A1F008958730A9F08830B9F08430D1F4A5
:10040000809180008F7D03C0809180008F778093E2
:100410008000089584B58F7702C084B58F7D84BD38
:1004200008958091B0008F7703C08091B0008F7DD8
:100430008093B0000895CF93DF9390E0FC01E458DF
:10044000FF4F2491FC01E057FF4F8491882349F12D
:1004500090E0880F991FFC01E255FF4FA591B491E0
:100460008C559F4FFC01C591D4919FB7611108C075
:10047000F8948C91209582238C93888182230AC0E2
:10048000623051F4F8948C91322F309583238C9301
:100490008881822B888304C0F8948C91822B8C9362
:1004A0009FBFDF91CF9108950F931F93CF93DF9359
:1004B0001F92CDB7DEB7282F30E0F901E859FF4F82
:1004C0008491F901E458FF4F1491F901E057FF4F6F
:1004D00004910023C9F0882321F069830E94F2016E
:1004E0006981E02FF0E0EE0FFF1FEC55FF4FA59163
:1004F000B4919FB7F8948C91611103C0109581233A
:1005000001C0812B8C939FBF0F90DF91CF911F91E2
:100510000F91089508950E94B7010E948A020E94D7
:100520007B00C0E0D0E00E94A8002097E1F30E9489
:0A0530000000F9CF0895F894FFCF02
:10053A000A0009000800070006000500040003007D
:02054A000200AD
:00000001FF
